:1000000034050020FD160000691700006917000084
:100010006917000069170000691700000000000060
:100020000000000000000000000000006917000050
:100030006917000000000000691700002905000092
:1000400069170000691700006917000069170000B0
:1000500069170000691700006917000069170000A0
:100060006917000069170000691700006917000090
:100070006917000069170000691700006917000080
:100080006917000069170000691700006917000070
:100090006917000069170000691700006917000060
:1000A0006917000069170000691700006917000050
:1000B0006917000069170000691700006917000040
:1000C0006917000069170000691700006917000030
:1000D0006917000069170000691700006917000020
:1000E0006917000069170000691700006917000010
:1000F0006917000069170000691700006917000000
:1001000080B584B000AF42F6D223C0F28E03BB604C
:1001100042F61003C0F280037B604FF46043C4F2E8
:100120000F0342F61002C0F280721A674FF4604368
:10013000C4F20F0343F6D122C0F28E721A664FF456
:100140006043C4F20F0342F6D222C0F28E021A6656
:100150004FF46043C4F20F0342F61002C0F2800273
:100160001A674FF00003FB6003E0FB6803F1010333
:10017000FB60FA6840F2E7339A42F6D94FF46043E5
:10018000C4F20F0342F6D222C0F28E021A664FF476
:100190006043C4F20F0342F61002C0F280021A67F5
:1001A0004FF00003FB6003E0FB6803F10103FB6019
:1001B000FA6840F2E7339A42F6D94FF46043C4F24A
:1001C0000F0342F6D222C0F28E021A664FF4604349
:1001D000C4F20F0342F6D222C0F28E021A664FF426
:1001E0006043C4F20F0342F61002C0F280021A67A5
:1001F0004FF00003FB6003E0FB6803F10103FB60C9
:10020000FA6842F20F739A42F6D94FF46043C4F28F
:100210000F031B6EBB604FF46043C4F20F031B6FF0
:100220007B607B68002B56DA7B6803F40063002B4D
:1002300014D0BB684FEA931303F00F027B684FEAB8
:10024000131303F007031046194600F075F8024631
:1002500040F20003C2F200031A6008E040F200031B
:10026000C2F200034FF44242C0F6EB321A60BB68A0
:1002700003F48003002B5AD07B6803F40063002B47
:1002800013D040F20003C2F200031A687B684FEA01
:10029000D35303F03F0303F10103B2FBF3F240F247
:1002A0000003C2F200031A6041E040F20003C2F210
:1002B00000031A687B684FEAD35303F03F0303F14E
:1002C0000103B2FBF3F34FEA530240F20003C2F220
:1002D00000031A602BE0BB684FEA931303F00F0290
:1002E000BB684FEA131303F003031046194600F0EE
:1002F00023F8024640F20003C2F200031A60BB6812
:1003000003F48003002B12D040F20003C2F200037A
:100310001A68BB684FEAD35303F00F0303F10103DC
:10032000B2FBF3F240F20003C2F200031A6007F1DD
:100330001007BD4680BD00BF80B485B000AF7860B7
:1003400039604FF4D853C0F2B703FB603B68032B0E
:1003500000F2988001A252F823F000BF6D03000064
:10036000630400006F0400007B0400007B680F2B17
:1003700000F2878001A252F823F000BFBD03000005
:10038000C9030000D1030000DD030000E503000005
:10039000F1030000F9030000050400000D04000053
:1003A00015040000210400002D04000039040000A1
:1003B000450400004D0400005904000044F24023AD
:1003C000C0F20F03FB604BE04FF4E113FB6047E02A
:1003D00048F28043C0F21E03FB6041E04FF4161365
:1003E000FB603DE049F69963C0F23603FB6037E0FD
:1003F0004FF46113FB6033E04FF41063C0F23D0330
:10040000FB602DE04FF47A13FB6029E04FF4960374
:10041000FB6025E044F64033C0F24C03FB601FE074
:100420004FF40053C0F24E03FB6019E048F68053CE
:10043000C0F25B03FB6013E04FF44043C0F25D0386
:10044000FB600DE04FF4E103FB6009E04FF49053D3
:10045000C0F27A03FB6003E04FF4FA03FB6000BFD5
:1004600010E04FF4D853C0F2B703FB600AE04CF23F
:10047000C063C0F22D03FB6004E047F23053FB6021
:1004800000E000BFFB68184607F11407BD4680BCBA
:10049000704700BF80B500AF4FF02000C2F20000EF
:1004A00000F002F94FF4A040C4F202004FF0020144
:1004B00000F06EFC4FF4A040C4F202004FF00201C5
:1004C0004FF001024FF00A0300F020FB4FF4A04070
:1004D000C4F202004FF0010100F074FC4FF4A040A0
:1004E000C4F202004FF0040100F06CFC4FF4A04095
:1004F000C4F202004FF0080100F064FC4FF4A04089
:10050000C4F202004FF004014FF0040200F02AFC94
:100510004FF4A040C4F202004FF008014FF008026F
:1005200000F020FC80BD00BF80B400AF40F210039B
:10053000C2F200031B6803F1010240F21003C2F291
:1005400000031A60BD4680BC704700BF80B582B012
:1005500000AF00F08BFF01F0BBF94FF000004FF04F
:10056000020141F60832C0F2000201F0EFF901F099
:1005700019FA00E000BF01F07FF8FFF78BFF4FF0A2
:1005800000037B604FF000033B6040F22003C2F2A7
:1005900000031B78A3F11703072BEBD801A252F835
:1005A00023F000BF8B0600007505000075050000F4
:1005B0007505000071060000750500005706000073
:1005C000C50500004FF000037B6017E04FF4A0402A
:1005D000C4F200004FF001014FF0010200F0C2FB35
:1005E00001F070F840F22103C2F200031B7803F01F
:1005F000F0033B607B6803F101037B607B68032BA6
:10060000E4DD3B68102B09D14FF000004FF00101F1
:1006100041F62032C0F2000201F098F93B68202B2D
:1006200009D14FF000004FF0010141F62C32C0F229
:10063000000201F08BF93B68302B09D14FF000002C
:100640004FF0010141F63832C0F2000201F07EF9AC
:1006500001F0A8F926E04FF000004FF0060141F646
:100660004432C0F2000201F071F901F09BF919E087
:100670004FF000004FF0080141F65C32C0F200027A
:1006800001F064F901F08EF90CE04FF000004FF03A
:100690000A0141F67432C0F2000201F057F901F08C
:1006A00081F900BF67E700BF80B483B000AF786016
:1006B0007B684FEA137241F6A833C0F2000353F887
:1006C00022301A467B684FEA137141F6A833C0F214
:1006D000000353F8213019687B684FEA03434FEA5F
:1006E0001343786800F4F8104FEA104003FA00F35F
:1006F00041EA0303136007F10C07BD4680BC704755
:1007000080B485B000AF4EF26003C4F20F031B68E3
:10071000FB604EF27003C4F20F031B687B607B68C2
:10072000002B03DA7B6803F0700302E0FB6803F040
:100730003003202B7FD0202B04D8002B0CD0102B83
:1007400017D0E6E0602B00F0DC80702B00F0DD803D
:10075000302B00F0D280DCE0FB6803F4F8634FEA52
:10076000931241F6CC33C0F2000353F82230BB6041
:10077000D2E04FF46043C4F20F031B6803F0E04380
:10078000002B0DD04FF46043C4F20F031A684FF0F2
:100790000003C7F2FF0302EA0303B3F1805F05D150
:1007A0004EF2C013C0F2E403BB6043E04FF4604379
:1007B000C4F20F031A684FF00003C7F2FF0302EA06
:1007C00003034FF00002C1F2010293420AD14FF439
:1007D0006043C4F20F031B684FEA03434FEA13431D
:1007E000022B1BD04FF46043C4F20F031A684FF082
:1007F0000003C7F2FF0302EA03034FF00002C1F255
:100800000302934210D14FF46043C4F20F031B68FC
:100810004FEA03434FEA1343002B05D14FF4D8535B
:10082000C0F2B703BB6005E04FF41053C0F2F4030D
:10083000BB6071E070E04FF46043C4F20F031B68CB
:1008400003F0E043002B0DD04FF46043C4F20F03DC
:100850001A684FF00003C7F2FF0302EA0303B3F183
:10086000805F05D143F67003C0F23903BB6043E0FB
:100870004FF46043C4F20F031A684FF00003C7F24D
:10088000FF0302EA03034FF00002C1F201029342A8
:100890000AD14FF46043C4F20F031B684FEA0343CD
:1008A0004FEA1343022B1BD04FF46043C4F20F03F3
:1008B0001A684FF00003C7F2FF0302EA03034FF088
:1008C0000002C1F20302934210D14FF46043C4F21C
:1008D0000F031B684FEA03434FEA1343002B05D174
:1008E0004CF2C063C0F22D03BB6005E04FF410630F
:1008F000C0F23D03BB600FE00EE047F23053BB6037
:100900000AE04FF48003BB6006E04FF40043BB6095
:1009100002E04FF00003AEE07B68002B04DA7B6856
:1009200003F40063002B07D07B68002B60DBFB68BF
:1009300003F40063002B5BD14EF26403C4F20F0397
:100940001B683B604FF46043C4F20F031B6803F065
:10095000E043002B0DD04FF46043C4F20F031A683C
:100960004FF00003C7F2FF0302EA0303B3F1805F15
:1009700014D13A6843F6E07302EA03034FEA5313D3
:1009800003F10203BA6802FB03F23B6803F01F03A2
:1009900003F10203B2FBF3F3BB6013E03A6843F6E2
:1009A000E07302EA03034FEA5313BA6802FB03F24F
:1009B0003B6803F01F0303F101034FEA4303B2FB5B
:1009C000F3F3BB603B6803F48043002B03D0BB68A8
:1009D0004FEA5303BB603B6803F40043002B03D092
:1009E000BB684FEA9303BB60FB6843F48003FB6082
:1009F000FB6803F48003002B3CD07B68002B2EDACD
:100A00007B6803F08043002B1DD07B68002B04DA49
:100A10007B6803F40063002B07D07B68002B12DB9C
:100A2000FB6803F40063002B0DD1BB684FEA43025F
:100A30007B6803F0FE534FEA935303F10103B2FBCB
:100A4000F3F3BB6016E07B6803F0FC534FEAD3532B
:100A500003F10103BA68B2FBF3F3BB600AE0FB6881
:100A600003F0F0634FEAD35303F10103BA68B2FB1A
:100A7000F3F3BB60BB68184607F11407BD4680BCA2
:100A8000704700BF80B485B000AFF8600B467A6055
:100A9000FB72FB6803F580631A467B6803F0010371
:100AA000DBB2002B07D0FB6803F580631968FB7A83
:100AB00041EA030308E0FB6803F580631968FB7AE9
:100AC0006FEA030301EA03031360FB6803F5846321
:100AD0001A467B6803F00203002B07D0FB6803F57E
:100AE00084631968FB7A41EA030308E0FB6803F5B5
:100AF00084631968FB7A6FEA030301EA0303136056
:100B000007F11407BD4680BC704700BF80B485B0B4
:100B100000AFF8607A603B600B46FB72FB6803F540
:100B2000A0631A467B6803F00103DBB2002B07D0F9
:100B3000FB6803F5A0631968FB7A41EA030308E048
:100B4000FB6803F5A0631968FB7A6FEA030301EA07
:100B500003031360FB6803F5A06303F104031A4663
:100B60007B6803F00203002B09D0FB6803F5A06348
:100B700003F104031968FB7A41EA03030AE0FB6806
:100B800003F5A06303F104031968FB7A6FEA03031A
:100B900001EA03031360FB6803F5A1631A467B684F
:100BA00003F00403002B07D0FB6803F5A163196869
:100BB000FB7A41EA030308E0FB6803F5A1631968C7
:100BC000FB7A6FEA030301EA03031360FB6803F592
:100BD000A3631A467B6803F00803002B07D0FB6869
:100BE00003F5A3631968FB7A41EA030308E0FB6895
:100BF00003F5A3631968FB7A6FEA030301EA0303B1
:100C00001360FB6803F5A06303F10C031A463B680D
:100C100003F00103DBB2002B09D0FB6803F5A063EE
:100C200003F10C031968FB7A41EA03030AE0FB684D
:100C300003F5A06303F10C031968FB7A6FEA030361
:100C400001EA03031360FB6803F5A2631A463B68DD
:100C500003F00203002B07D0FB6803F5A2631968B9
:100C6000FB7A41EA030308E0FB6803F5A263196815
:100C7000FB7A6FEA030301EA03031360FB6803F5E1
:100C8000A26303F104031A463B6803F00403002B3C
:100C900009D0FB6803F5A26303F104031968FB7A2A
:100CA00041EA03030AE0FB6803F5A26303F10403CE
:100CB0001968FB7A6FEA030301EA03031360FB6818
:100CC00003F5A26303F10C031A463B6803F0080323
:100CD000002B09D0FB6803F5A26303F10C0319682C
:100CE000FB7A41EA03030AE0FB6803F5A26303F120
:100CF0000C031968FB7A6FEA030301EA030313602C
:100D0000FB6803F5A5631A463B68002B07D1FB6817
:100D100003F5A5631968FB7A41EA030308E0FB6861
:100D200003F5A5631968FB7A6FEA030301EA03037D
:100D3000136007F11407BD4680BC704780B483B0D0
:100D400000AF78600B46FB70FB784FEA83031A46CE
:100D50007B68D3181B68184607F10C07BD4680BC9A
:100D6000704700BF80B483B000AF786013460A4676
:100D7000FA70BB70FB784FEA83031A467B68D3187E
:100D8000BA781A6007F10C07BD4680BC704700BFF7
:100D900080B582B000AF78600B46FB70FB78786856
:100DA00019464FF00002FFF76DFEFB787868194690
:100DB0004FF001024FF00803FFF7A8FE07F1080704
:100DC000BD4680BD80B582B000AF78600B46FB7039
:100DD000FB78786819464FF00102FFF753FEFB7865
:100DE000786819464FF001024FF00803FFF78EFEB6
:100DF00007F10807BD4680BD80B582B000AF7860BE
:100E00000B46FB70FB78786819464FF00202FFF73B
:100E100039FEFB78786819464FF001024FF008035D
:100E2000FFF774FE07F10807BD4680BD80B582B0AC
:100E300000AF7860396040F22403C2F2000303F08F
:100E4000704240F22403C2F2000323F07F4323F4F4
:100E500070034FEA431342EA030343F000731B6835
:100E6000002B5BD040F22403C2F2000303F0704277
:100E700040F22403C2F2000323F07F4323F4700303
:100E80004FEA431342EA030343F0007343F00403C1
:100E90001B68002B3ED000BF4FF40040C4F200009E
:100EA00000F000FD0346002BF6D14FF48040C4F261
:100EB00000004FF040014FF00002FFF753FF40F2F7
:100EC0002403C2F2000303F0704240F22403C2F292
:100ED000000323F07F4323F470034FEA431342EAF5
:100EE000030343F0007343F004034FF000021A6061
:100EF00010E07B681B787A6802F101027A604FF497
:100F00000040C4F20000194600F0B4FC3B6803F155
:100F1000FF333B603B68002BEBD100E000BF07F1E3
:100F20000807BD4680BD00BF80B582B000AF7860C5
:100F3000396040F22403C2F2000303F0704240F231
:100F40002403C2F2000323F07F4323F470034FEA2B
:100F5000431342EA030343F000731B68002B5BD08A
:100F600040F22403C2F2000303F0704240F2240373
:100F7000C2F2000323F07F4323F470034FEA4313CC
:100F800042EA030343F0007343F004031B68002BA1
:100F90003ED100BF4FF40040C4F2000000F082FCDC
:100FA0000346002BF6D14FF48040C4F200004FF00E
:100FB00040014FF04002FFF7D5FE40F22403C2F299
:100FC000000303F0704240F22403C2F2000323F056
:100FD0007F4323F470034FEA431342EA030343F0D1
:100FE000007343F004034FF001021A6010E07B68C5
:100FF0001B787A6802F101027A604FF40040C4F273
:101000000000194600F036FC3B6803F1FF333B60FB
:101010003B68002BEBD100E000BF07F10807BD469D
:1010200080BD00BF80B582B000AF40F22803C2F29D
:1010300000034FF000021A6040F22803C2F20003DE
:1010400003F104034FF000021A6041F66460C0F23D
:1010500000004FF00301FFF7E9FE41F66860C0F2BF
:1010600000004FF00301FFF7E1FE41F62C40C0F213
:1010700000004FF00201FFF7D9FE4FF000037B6044
:1010800016E04FF000033B600BE040F22800C2F294
:1010900000004FF00801FFF747FF3B6803F1100322
:1010A0003B603B687F2BF0D97B6803F101037B60D9
:1010B0007B685F2BE5D907F10807BD4680BD00BFFF
:1010C00080B588B000AFF860B9607A60FB7040F21C
:1010D0002803C2F200034FF015021A70BB684FEAF2
:1010E0005303DAB240F22803C2F200035A7040F20E
:1010F0002803C2F200034FF03F029A7040F228002A
:10110000C2F200004FF00301FFF790FE40F2280307
:10111000C2F200034FF075021A707B68DAB240F237
:101120002803C2F200035A707B68DBB203F10703A5
:10113000DAB240F22803C2F200039A7040F22800AB
:10114000C2F200004FF00301FFF770FE41F62840A5
:10115000C0F200004FF00201FFF768FE94E0FB6868
:101160001B7803F07F03FB75FB6803F10103FB6051
:10117000FB7D1F2B03D84FF00003FB7503E0FB7DC5
:10118000A3F12003FB754FF00003FB6179E04FF002
:101190000003BB615FE040F22803C2F20003BA69BA
:1011A0009B184FF000021A70F97D41F63042C0F2F0
:1011B00000020B464FEA83035B18F9695B18D318EA
:1011C0001B781A46BB6942FA03F303F00103DBB252
:1011D000002B0AD0FB784FEA0313DAB240F228035F
:1011E000C2F20003B9695B181A70FB69032B2ED891
:1011F000F97DFB6903F1010041F63042C0F20002C3
:101200000B464FEA83035B181B18D3181B781A464A
:10121000BB6942FA03F303F00103DBB2002B16D0E3
:1012200040F22803C2F20003BA699B181B78DAB2B5
:10123000FB7803F00F03DBB242EA0303DBB2DAB25E
:1012400040F22803C2F20003B9695B181A70BB6947
:1012500003F10103BB61BB69072B9CD940F2280055
:10126000C2F200004FF00801FFF75EFEBB6803F119
:101270000203BB60BB68802B0CD0FB6903F1020347
:10128000FB61FB69052B82D9FB681B78002B7FF47F
:1012900066AF00E000BF07F12007BD4680BD00BF7C
:1012A00080B584B002AF78604FF40040C4F2000013
:1012B00000F0CCFAFFF724FA03467A6800924FF068
:1012C000080201924FF40040C4F2000019464FF0AA
:1012D00003024FF0000300F04BFA4FF48040C4F2D9
:1012E00000004FF00801FFF787FD4FF48040C4F283
:1012F00000004FF008014FF004024FF00A03FFF71F
:1013000005FC4FF40040C4F2000000F08BFA40F2FC
:101310002403C2F2000303F0704240F22403C2F23D
:10132000000323F07F4323F470034FEA431342EAA0
:10133000030343F000734FF001021A6007F108073E
:10134000BD4680BD80B584B000AF78604FF010001E
:10135000C1F20000FFF7A8F94FF00100C2F200004F
:10136000FFF7A2F94FF00100C2F20000FFF79CF96D
:101370004FF48040C4F200004FF02C01FFF73CFD19
:101380004FF48040C4F200004FF02C014FF00402F3
:101390004FF00A03FFF7BAFB4FF48040C4F200009D
:1013A0004FF0C001FFF70EFD4FF48040C4F2000083
:1013B0004FF0C0014FF004024FF00803FFF7A6FB07
:1013C0004FF48040C4F200004FF0C0014FF0C00263
:1013D000FFF7C8FC40F22403C2F2000303F070429E
:1013E00040F22403C2F2000323F07F4323F470038E
:1013F0004FEA431342EA030343F0007343F004034C
:101400004FF001021A607868FFF74AFFFFF70AFE03
:101410004FF00003FB6021E0FB6803F1010241F69D
:101420001063C0F20003D21841F61063C0F200034B
:10143000F9685B181B7803F1FF3310461946FFF774
:10144000F5FC41F61063C0F20003FA689B181B78A4
:101450001A46FB68D31803F10103FB60FB684E2BAF
:10146000DAD907F11007BD4680BD00BF80B500AFD7
:101470004FF02000C2F20000FFF716F94FF4A04031
:10148000C4F202004FF00201FFF782FC4FF4A040CB
:10149000C4F202004FF002014FF001024FF00A03C4
:1014A000FFF734FB4FF01000C2F20000FFF7FCF82A
:1014B0004FF48040C4F202004FF00101FFF768FCD6
:1014C0004FF48040C4F202004FF001014FF00102DE
:1014D0004FF00A03FFF71AFB4FF48040C4F20200FA
:1014E0004FF00201FFF754FC4FF48040C4F20200B9
:1014F0004FF002014FF001024FF00A03FFF706FB25
:101500004FF48040C4F202004FF00401FFF740FCAA
:101510004FF48040C4F202004FF004014FF001028A
:101520004FF00A03FFF7F2FA4FF48040C4F20200D2
:101530004FF00801FFF72CFC4FF48040C4F202008A
:101540004FF008014FF001024FF00A03FFF7DEFAF7
:101550004FF00200C2F20000FFF7A6F84FF4A040DF
:10156000C4F200004FF04001FFF712FC4FF4A0401E
:10157000C4F200004FF040014FF001024FF00C03A5
:10158000FFF7C4FA4FF4A040C4F200004FF020016E
:10159000FFF7FEFB4FF4A040C4F200004FF0200123
:1015A0004FF001024FF00C03FFF7B0FA4FF4A040E8
:1015B000C4F200004FF01001FFF7EAFB4FF4A04027
:1015C000C4F200004FF010014FF001024FF00C0385
:1015D000FFF79CFA4FF4A040C4F200004FF008015E
:1015E000FFF7F0FB4FF4A040C4F200004FF00801F9
:1015F0004FF001024FF00C03FFF788FA4FF4A040C0
:10160000C4F200004FF00401FFF7DCFB4FF4A040F0
:10161000C4F200004FF004014FF001024FF00C0340
:10162000FFF774FA4FF4A040C4F200004FF002013B
:10163000FFF7C8FB4FF4A040C4F200004FF00201D6
:101640004FF001024FF00C03FFF760FA4FF4A04097
:10165000C4F200004FF00101FFF7B4FB4FF4A040CB
:10166000C4F200004FF001014FF001024FF00C03F3
:10167000FFF74CFA80BD00BF90B583B000AF4FF4C8
:101680008040C4F202004FF00F01FFF757FB044601
:101690004FF4A040C4F202004FF00201FFF74EFBEE
:1016A00003464FEAC30344EA03037B607B68DAB274
:1016B00040F22003C2F200031A7007F10C07BD4686
:1016C00090BD00BF80B582B000AF4FF000037B60DB
:1016D0004FF4A040C4F200004FF07001FFF72EFB62
:1016E00003467B607B68DAB240F22103C2F200035A
:1016F0001A7007F10807BD4680BD00BF80B582B0F3
:1017000000AF41F66C63C0F200037B6040F200035F
:10171000C2F200033B600BE07B681A683B681A600A
:101720003B6803F104033B607B6803F104037B60C7
:101730003A6840F21003C2F200039A42ECD3084820
:1017400008494FF000028842B8BF40F8042BFADB8A
:10175000FEF7D6FCFEF7FAFE07F10807BD4680BD8E
:10176000100000203801002080B400AFFEE700BF69
:1017700080B48BB000AFF860B9607A603B603B68C2
:10178000022B02D14FF0080301E04FF000033B624F
:101790003B68002B02D14FF0000301E04FF004033F
:1017A0003A6A42EA03033B62FB6803F104033A6AC4
:1017B0001A60BA683B6BB2FBF3F3FB614FF00003B6
:1017C0007B627B6A03F102037B62FA697B6AB2FB8C
:1017D000F3F303F1FF33BB61BB69FF2BF1D8FB6867
:1017E00003F110037A6A1A607B684FEA83137B6106
:1017F0007B6803F030037B60BB694FEA03227B699F
:101800001A437B681A437B6B03F1FF3342EA0303FD
:101810003B62FB683A6A1A6007F12C07BD4680BC40
:10182000704700BF80B483B000AF78607B6803F17D
:1018300004037A6802F10402126842F002021A609C
:1018400007F10C07BD4680BC704700BF80B483B071
:1018500000AF78607B6803F104037A6802F1040248
:10186000126822F002021A6007F10C07BD4680BC24
:10187000704700BF80B483B000AF7860396000BFAC
:101880007B6803F10C031B6803F00203002BF7D005
:101890007B6803F108033A681A6007F10C07BD463C
:1018A00080BC704780B483B000AF78607B6803F180
:1018B0000C031B6803F01003002B0CBF0023012353
:1018C000DBB2184607F10C07BD4680BC704700BF6D
:1018D00080B582B000AF00F08DF84FF000037B6060
:1018E0002CE04FF000033B6012E040F23003C2F204
:1018F00000037A684FF0160101FB02F13A688A187A
:101900009B184FF020021A703B6803F101033B6003
:101910003B68142BE9DD40F23003C2F200037A6821
:101920004FF0160101FB02F29B1803F115034FF073
:1019300000021A707B6803F101037B607B680B2B4C
:10194000CFDD07F10807BD4680BD00BF80B586B07A
:1019500000AFF860B9607A60786800F067F8034615
:101960007B61FB68C3F115027B699A4203DAFB686D
:10197000C3F115037B6140F23003C2F20003BA6881
:101980004FF0160101FB02F1FA688A189A187B6978
:10199000104679681A4600F079F807F11807BD4635
:1019A00080BD00BF80B582B000AF4FF000037B6008
:1019B00018E040F23003C2F200037A684FF01601DB
:1019C00001FB02F29A187B684FEAC30310464FF0FE
:1019D00000011A464FF00F0300F016F87B6803F180
:1019E00001037B607B680B2BE3DD07F10807BD4635
:1019F00080BD00BF80B500AF44F24020C0F20F00B0
:101A0000FFF7A0FC80BD00BF80B584B000AFF860D8
:101A1000B9607A60FB70FB78F868B9687A68FFF79C
:101A20004FFB07F11007BD4680BD00BF20F003014A
:101A300010F00300C0F1000051F8043B00F1040C69
:101A40004FEACC0C6FF000021CBF22FA0CF21343D9
:101A50004FF0010C4CEA0C2C4CEA0C4CA3EB0C02A2
:101A600022EA030212EACC1204BF51F8043B04300C
:101A7000F4D013F0FF0F1FBF013013F47F4F01307C
:101A800013F47F0F18BF0130704700BF41EA000315
:101A900013F0030F034670B414BF00250125032A79
:101AA00094BF002505F001050C460646CDB9B2B13C
:101AB0000D783446531E04F8015B55B1B21C73B166
:101AC00011F8015F1446013B02F8015C0132002D60
:101AD000F5D123B10022013B04F8012BFBD170BCEE
:101AE0007047214654F8045BA5F1013626EA050645
:101AF00016F0803F05D1043A43F8045B032A2146DF
:101B0000EFD81E46D3E700BF6B65797061645F65EF
:101B1000787465726E6F5F66726F67615F763200B0
:101B2000312E534F4C41495255410000342E534FF2
:101B30004C41495255410000352E534F4C414952BA
:101B4000554100004750494F32204B45595F444FA3
:101B5000574E2020203A204F4B0000004750494F5D
:101B600033204B45595F524947485420203A204F73
:101B70004B0000004750494F34204B45595F4C45BE
:101B800046542020203A204F4B00000010E00F4028
:101B900014E00F401CE00F4010E00F4040E00F4009
:101BA00044E00F4048E00F4000E10F4004E10F40E7
:101BB00008E10F4010E10F4014E10F4018E10F4021
:101BC00020E10F4024E10F4028E10F4040420F0088
:101BD00000201C0080841E0000802500999E360095
:101BE0000040380000093D0000803E0000004B002E
:101BF000404B4C0000204E00808D5B0000C05D001B
:101C00000080700000127A0000007D00809698002D
:101C1000001BB7000080BB00C0E8CE00647ADA0089
:101C20000024F4000000FA00A0560000A0520000BA
:101C3000000000000000004F000000070007001433
:101C40007F147F14242A7F2A1223130864623649E2
:101C50005522500005030000001C224100004122D3
:101C60001C0014083E081408083E08080050300004
:101C7000000808080808006060000020100804023E
:101C80003E5149453E00427F400042615149462154
:101C900041454B311814127F1027454545393C4AC0
:101CA0004949300171090503364949493606494910
:101CB000291E003636000000563600000814224166
:101CC00000141414141400412214080201510906CE
:101CD000324979413E7E1111117E7F494949363E94
:101CE000414141227F4141221C7F494949417F09AD
:101CF0000909013E4149497A7F0808087F00417F70
:101D000041002040413F017F081422417F40404074
:101D1000407F020C027F7F0408107F3E4141413E1C
:101D20007F090909063E4151215E7F09192946466E
:101D30004949493101017F01013F4040403F1F2097
:101D400040201F3F4038403F631408146307087069
:101D500008076151494543007F41410002040810D2
:101D6000200041417F000402010204404040404005
:101D7000000102040020545454787F484444383809
:101D800044444420384444487F3854545418087E0E
:101D90000901020C5252523E7F0804047800447D2F
:101DA00040002040443D007F1028440000417F4017
:101DB000007C041804787C080404783844444438CF
:101DC0007C14141408081414187C7C0804040848B3
:101DD00054545420043F4440203C4040207C1C206C
:101DE00040201C3C4030403C44281028440C5050BB
:101DF000503C4464544C44000836410000007F00CD
:101E00000000413608000201020402000000000048
:101E100003FD12E302AEE3039400E303A85FE303D0
:101E200081B7E303823FE303A052E303A100E3038E
:101E3000A200E302A4E303B111E303B223E303B37B
:101E4000E2E311B8010203040506080A0C0E1013A0
:101E5000161A1EE303BB01E303BC3FE302AFE3003A
:0C1E6000AEE3000015003F0075007F009D
:101E6C00001BB700001BB70000127A0000093D00F0
:00000001FF
