:10000000CC070020311E00009D1E00009D1E000038
:100010009D1E00009D1E00009D1E000000000000AF
:100020000000000000000000000000009D1E000015
:100030009D1E0000000000009D1E0000BD2300006A
:100040009D1E00009D1E00009D1E00009D1E0000C4
:100050009D1E00009D1E00009D1E00009D1E0000B4
:100060009D1E00009D1E00009D1E00009D1E0000A4
:100070009D1E00009D1E00009D1E00009D1E000094
:100080009D1E00009D1E00009D1E00009D1E000084
:100090009D1E00009D1E00009D1E00009D1E000074
:1000A0009D1E00009D1E00009D1E00009D1E000064
:1000B0009D1E00009D1E00009D1E00009D1E000054
:1000C0009D1E00009D1E00009D1E00009D1E000044
:1000D0009D1E00009D1E00009D1E00009D1E000034
:1000E0009D1E00009D1E00009D1E00009D1E000024
:1000F0009D1E00009D1E00009D1E00009D1E000014
:1001000080B584B000AF42F6D223C0F28E03BB604C
:1001100042F61003C0F280037B604FF46043C4F2E8
:100120000F0342F61002C0F280721A674FF4604368
:10013000C4F20F0343F6D122C0F28E721A664FF456
:100140006043C4F20F0342F6D222C0F28E021A6656
:100150004FF46043C4F20F0342F61002C0F2800273
:100160001A674FF00003FB6003E0FB6803F1010333
:10017000FB60FA6840F2E7339A42F6D94FF46043E5
:10018000C4F20F0342F6D222C0F28E021A664FF476
:100190006043C4F20F0342F61002C0F280021A67F5
:1001A0004FF00003FB6003E0FB6803F10103FB6019
:1001B000FA6840F2E7339A42F6D94FF46043C4F24A
:1001C0000F0342F6D222C0F28E021A664FF4604349
:1001D000C4F20F0342F6D222C0F28E021A664FF426
:1001E0006043C4F20F0342F61002C0F280021A67A5
:1001F0004FF00003FB6003E0FB6803F10103FB60C9
:10020000FA6842F20F739A42F6D94FF46043C4F28F
:100210000F031B6EBB604FF46043C4F20F031B6FF0
:100220007B607B68002B56DA7B6803F40063002B4D
:1002300014D0BB684FEA931303F00F027B684FEAB8
:10024000131303F007031046194600F075F8024631
:1002500040F20003C2F200031A6008E040F200031B
:10026000C2F200034FF44242C0F6EB321A60BB68A0
:1002700003F48003002B5AD07B6803F40063002B47
:1002800013D040F20003C2F200031A687B684FEA01
:10029000D35303F03F0303F10103B2FBF3F240F247
:1002A0000003C2F200031A6041E040F20003C2F210
:1002B00000031A687B684FEAD35303F03F0303F14E
:1002C0000103B2FBF3F34FEA530240F20003C2F220
:1002D00000031A602BE0BB684FEA931303F00F0290
:1002E000BB684FEA131303F003031046194600F0EE
:1002F00023F8024640F20003C2F200031A60BB6812
:1003000003F48003002B12D040F20003C2F200037A
:100310001A68BB684FEAD35303F00F0303F10103DC
:10032000B2FBF3F240F20003C2F200031A6007F1DD
:100330001007BD4680BD00BF80B485B000AF7860B7
:1003400039604FF4D853C0F2B703FB603B68032B0E
:1003500000F2988001A252F823F000BF6D03000064
:10036000630400006F0400007B0400007B680F2B17
:1003700000F2878001A252F823F000BFBD03000005
:10038000C9030000D1030000DD030000E503000005
:10039000F1030000F9030000050400000D04000053
:1003A00015040000210400002D04000039040000A1
:1003B000450400004D0400005904000044F24023AD
:1003C000C0F20F03FB604BE04FF4E113FB6047E02A
:1003D00048F28043C0F21E03FB6041E04FF4161365
:1003E000FB603DE049F69963C0F23603FB6037E0FD
:1003F0004FF46113FB6033E04FF41063C0F23D0330
:10040000FB602DE04FF47A13FB6029E04FF4960374
:10041000FB6025E044F64033C0F24C03FB601FE074
:100420004FF40053C0F24E03FB6019E048F68053CE
:10043000C0F25B03FB6013E04FF44043C0F25D0386
:10044000FB600DE04FF4E103FB6009E04FF49053D3
:10045000C0F27A03FB6003E04FF4FA03FB6000BFD5
:1004600010E04FF4D853C0F2B703FB600AE04CF23F
:10047000C063C0F22D03FB6004E047F23053FB6021
:1004800000E000BFFB68184607F11407BD4680BCBA
:10049000704700BF80B483B000AF78607B684FEADC
:1004A000137242F2A863C0F2000353F822301A46D6
:1004B0007B684FEA137142F2A863C0F2000353F85D
:1004C000213019687B684FEA03434FEA1343786889
:1004D00000F4F8104FEA104003FA00F341EA030376
:1004E000136007F10C07BD4680BC70470138FDD191
:1004F000704700BF80B586B000AF78604FF46043AE
:10050000C4F20F031B6803F0E043002B0DD04FF43F
:100510006043C4F20F031A684FF00003C7F2FF03F1
:1005200002EA0303B3F1805F03D17B68002BC0F2C2
:1005300023814EF26003C4F20F031B683B614EF24D
:100540007003C4F20F031B68FB603B6943F4006354
:100550003B613B6923F480033B61FB6843F4006328
:10056000FB604EF26003C4F20F033A691A604EF268
:100570007003C4F20F03FA681A603B6903F00203C8
:10058000002B04D07B6803F00203002B0AD03B69E8
:1005900003F00103DBB2002B2FD07B6803F00103D3
:1005A000002B2AD17B6863F003033A6902EA030354
:1005B0003B614EF26003C4F20F033A691A60FB68B4
:1005C000002B09DAFB6803F07003302B0CD0FB68BA
:1005D00003F07003702B07D0FB68002B09DB3B692D
:1005E00003F03003302B04D14FF48050FFF77EFF2F
:1005F00003E04FF40020FFF779FF3B6923F45E53DB
:1006000023F070033B617A6843F2F07302EA03035C
:100610003A6942EA03033B61FA684DF68F73C7F605
:10062000FF7302EA0303FB607A6842F23003C8F208
:10063000000302EA0303FA6842EA0303FB607B68F3
:1006400003F008034FEAC303FA6842EA0303FB60BE
:100650004EF25803C4F20F034FF040021A60FB68D9
:10066000002B0CDA4EF27003C4F20F03FA681A6022
:100670004EF26003C4F20F033A691A600BE04EF2C7
:100680006003C4F20F033A691A604EF27003C4F2B9
:100690000F03FA681A604FF01000FFF727FF3B695D
:1006A00023F0F86323F003033B617A684FF0030300
:1006B000C0F2C07302EA03033A6942EA03033B61F2
:1006C000FB6823F0FC53FB607B6803F0FC53FA6883
:1006D00042EA0303FB607B6803F08043002B13D0E6
:1006E0003B6943F480033B61FB6823F48003FB60B8
:1006F0007A684FF00003C4F2400302EA0303FA6889
:1007000042EA0303FB6003E0FB6823F08043FB60E5
:100710007B6803F40063002B1DD14FF400437B6121
:100720000CE04EF25003C4F20F031B6803F04003C9
:10073000002B07D17B6903F1FF337B617B69002BC1
:10074000EFD100E000BF3B6923F400633B61FB682D
:1007500023F40063FB604EF26003C4F20F033A69B6
:100760001A604EF27003C4F20F03FA681A604FF079
:100770001000FFF7BBFE00E000BF07F11807BD4601
:1007800080BD00BF80B485B000AF4EF26003C4F2FC
:100790000F031B68FB604EF27003C4F20F031B686B
:1007A0007B607B68002B03DA7B6803F0700302E058
:1007B000FB6803F03003202B7FD0202B04D8002BC4
:1007C0000CD0102B17D0E6E0602B00F0DC80702BF3
:1007D00000F0DD80302B00F0D280DCE0FB6803F419
:1007E000F8634FEA931242F2CC63C0F2000353F86D
:1007F0002230BB60D2E04FF46043C4F20F031B68A9
:1008000003F0E043002B0DD04FF46043C4F20F031C
:100810001A684FF00003C7F2FF0302EA0303B3F1C3
:10082000805F05D14EF2C013C0F2E403BB6043E029
:100830004FF46043C4F20F031A684FF00003C7F28D
:10084000FF0302EA03034FF00002C1F201029342E8
:100850000AD14FF46043C4F20F031B684FEA03430D
:100860004FEA1343022B1BD04FF46043C4F20F0333
:100870001A684FF00003C7F2FF0302EA03034FF0C8
:100880000002C1F20302934210D14FF46043C4F25C
:100890000F031B684FEA03434FEA1343002B05D1B4
:1008A0004FF4D853C0F2B703BB6005E04FF41053C8
:1008B000C0F2F403BB6071E070E04FF46043C4F237
:1008C0000F031B6803F0E043002B0DD04FF460438F
:1008D000C4F20F031A684FF00003C7F2FF0302EAE5
:1008E0000303B3F1805F05D143F67003C0F239030F
:1008F000BB6043E04FF46043C4F20F031A684FF04B
:100900000003C7F2FF0302EA03034FF00002C1F243
:10091000010293420AD14FF46043C4F20F031B68F3
:100920004FEA03434FEA1343022B1BD04FF46043BB
:10093000C4F20F031A684FF00003C7F2FF0302EA84
:1009400003034FF00002C1F20302934210D14FF4AF
:100950006043C4F20F031B684FEA03434FEA13439B
:10096000002B05D14CF2C063C0F22D03BB6005E043
:100970004FF41063C0F23D03BB600FE00EE047F29E
:100980003053BB600AE04FF48003BB6006E04FF4D5
:100990000043BB6002E04FF00003AEE07B68002B39
:1009A00004DA7B6803F40063002B07D07B68002B1C
:1009B00060DBFB6803F40063002B5BD14EF2640341
:1009C000C4F20F031B683B604FF46043C4F20F0393
:1009D0001B6803F0E043002B0DD04FF46043C4F2DA
:1009E0000F031A684FF00003C7F2FF0302EA030384
:1009F000B3F1805F14D13A6843F6E07302EA03036F
:100A00004FEA531303F10203BA6802FB03F23B6897
:100A100003F01F0303F10203B2FBF3F3BB6013E027
:100A20003A6843F6E07302EA03034FEA5313BA68E5
:100A300002FB03F23B6803F01F0303F101034FEADB
:100A40004303B2FBF3F3BB603B6803F48043002B2A
:100A500003D0BB684FEA5303BB603B6803F4004319
:100A6000002B03D0BB684FEA9303BB60FB6843F4E1
:100A70008003FB60FB6803F48003002B3CD07B68A1
:100A8000002B2EDA7B6803F08043002B1DD07B689F
:100A9000002B04DA7B6803F40063002B07D07B682B
:100AA000002B12DBFB6803F40063002B0DD1BB6845
:100AB0004FEA43027B6803F0FE534FEA935303F17E
:100AC0000103B2FBF3F3BB6016E07B6803F0FC5359
:100AD0004FEAD35303F10103BA68B2FBF3F3BB60EF
:100AE0000AE0FB6803F0F0634FEAD35303F101031C
:100AF000BA68B2FBF3F3BB60BB68184607F1140792
:100B0000BD4680BC704700BF80B500AF4FF02000ED
:100B1000C2F20000FFF7BEFC4FF4A040C4F2020096
:100B20004FF0010100F09EFC4FF4A040C4F202001F
:100B30004FF0040100F096FC4FF4A040C4F2020014
:100B40004FF0080100F08EFC4FF4A040C4F2020008
:100B50004FF001014FF0000200F03AFC4FF4A040CA
:100B6000C4F202004FF004014FF0040200F030FC28
:100B70004FF4A040C4F202004FF008014FF0080209
:100B800000F026FC80BD00BF80B485B000AF786067
:100B90007A684FF48053C4F204039A420FD04FF4A2
:100BA0000053C4F204039A420DD04FF00003C4F284
:100BB00004039A420BD14FF03703FB600AE04FF079
:100BC0003803FB6006E04FF03903FB6002E04FF0B2
:100BD000FF33FB60FB68184607F11407BD4680BC75
:100BE000704700BF80B586B000AF78607B6823F4A3
:100BF0007E6323F01F031846FFF7C6FF03467B61A1
:100C00004EF20413CEF200031A687B69A3F130039D
:100C10004FF0010101FA03F302EA03033B613B6970
:100C2000002B02D0786900F01DFD7B681B684FF037
:100C30000003BB6003E0BB6803F10103BB60BB685A
:100C4000042BF8DD7B681B68FB603B69002B02D03E
:100C5000786900F09BFCFB68184607F11807BD4651
:100C600080BD00BF80B485B000AF786039607B681C
:100C70003A681A604FF00003FB6003E0FB6803F181
:100C80000103FB60FB68042BF8DD07F11407BD4688
:100C900080BC704780B586B000AFF860B9607A60FC
:100CA0004FF000037B6123E07B69FA68D3181B785F
:100CB0003B617B6903F101037B617A697B689A423E
:100CC0000DDA7B69FA68D3181B784FEA03233A6977
:100CD00042EA03033B617B6903F101037B61BB686B
:100CE000BA6802F10402BA6018463969FFF7BAFF20
:100CF0007A697B689A42D7DB07F11807BD4680BD49
:100D000080B582B000AF78607868FFF76BFF03466C
:100D100023F0010378681946FFF7A4FF07F10807DD
:100D2000BD4680BD80B58AB000AFF860B9607A601A
:100D3000BA687B68B2FBF3F37B62BA687B6AB2FB8A
:100D4000F3F27B689A4261D97B6A03F101037B620B
:100D50005CE04FF00D033B6251E07A6A3B6AB2FB04
:100D6000F3F3FB61FB693A6A02FB03F27B6A9A4286
:100D700041D13B6AA3F1050242F22873C0F200039D
:100D800033F81230BB61F868FFF72CFF0346FB8293
:100D9000FB8A43F041039BB2F8681946FFF762FFF4
:100DA000FB6903F1FF3303F03F03BA6942EA03032F
:100DB000BB61FB6803F10C031846B969FFF752FFEA
:100DC000FB6803F11802FB6903F1FF334FEA931349
:100DD00003F00F0310461946FFF744FFFB8AF8683B
:100DE0001946FFF73FFFFB693A6A02FB03F3BA6853
:100DF000B2FBF3F310E03B6A03F1FF333B623B6A63
:100E0000042BAAD87B6A03F101037B627B6AB3F5EA
:100E1000505F9ED94FF00003184607F12807BD46E2
:100E200080BD00BF80B588B000AFF860B9607A605F
:100E3000FB704FF00003FB7400BFFB6803F120035D
:100E40001846FFF7CFFE034603F40043002BF4D10E
:100E50007B681A6840F2FF739A4205D87B689B68EA
:100E600003F00403002B03D04FF00103BB7402E036
:100E70004FF00003BB744FF09303FB834FF000036C
:100E80003B834FF00003FB824FF00003BB824FF027
:100E90000003BB834FF000037B83FB78042B00F23D
:100EA000358101A252F823F0BD0E0000D30E0000E0
:100EB000E30E0000EB0E00000D0F0000BB8A43F4B0
:100EC0008073BB824FF40053FB824FF00103FB742D
:100ED00026E0BB8A43F48073BB824FF00003FB82A1
:100EE0001EE04FF00003FB821AE04FF40053FB8238
:100EF0004FF48053BB824FF6FF73BB8341F6FF7301
:100F00007B83FB8B43F04003FB8309E04FF40053EA
:100F1000FB824FF49053BB824FF00103FB7400BF80
:100F20007B689B6803F00803002B1ED0BB7C002B62
:100F30000DD07B685B68BB837B685B684FEA1343BB
:100F40009BB24FEAC3434FEAD3437B830DE04FF09C
:100F50000003BB837B685B689BB24FEA83039BB251
:100F60004FEAC3434FEAD3437B837B689B6803F01C
:100F70002803282B05D17B8B6FEA43436FEA534349
:100F80007B837B689B6803F01803182B03D17B8B52
:100F900043F480437B837B689B6803F03803002B1A
:100FA00007D0BB8A43F48053BB82FB8B43F04003E2
:100FB000FB83FB8B43F02003FB83BB7C002B1BD00C
:100FC0007B681B689AB23B8B42EA03033B837B68D6
:100FD0001B684FEA13439BB24FEAC3434FEAD34324
:100FE0009AB2FB8A42EA0303FB82FB8A6FEA8343DD
:100FF0006FEA9343FB8214E07B681B689BB24FEA65
:1010000083039BB24FEAC3434FEAD3439AB2FB8AAE
:1010100042EA0303FB82FB8A6FEA43436FEA5343CE
:10102000FB827B68DB689BB203F00F039AB2BB8A3A
:1010300042EA0303BB827B689B6803F40073002BC6
:1010400003D1BB8A43F08003BB827B689B6803F0BB
:101050000103DBB2002B03D0BB8A43F40063BB82E5
:101060007B689B6803F00203002B03D0BB8A43F428
:101070008063BB82FB7C002B0CD07B681969FB680A
:1010800003F13C031A467B68DB68084611461A46A2
:10109000FFF700FEFB6803F12402FB8B10461946A4
:1010A000FFF7E0FDFB6803F12802BB8B10461946F1
:1010B000FFF7D8FDFB6803F12C027B8B1046194625
:1010C000FFF7D0FDFB6803F130023B8B1046194659
:1010D000FFF7C8FDFB6803F13402FB8A104619468E
:1010E000FFF7C0FDFB6803F13802BB8A10461946C2
:1010F000FFF7B8FDFB6803F12002BB6803F03F0374
:1011000010461946FFF7AEFD00BF00E000BF07F133
:101110002007BD4680BD00BF80B485B000AFF86039
:101120000B467A60FB72FB6803F580631A467B68A6
:1011300003F00103DBB2002B07D0FB6803F58063EB
:101140001968FB7A41EA030308E0FB6803F5806352
:101150001968FB7A6FEA030301EA03031360FB6873
:1011600003F584631A467B6803F00203002B07D063
:10117000FB6803F584631968FB7A41EA030308E01E
:10118000FB6803F584631968FB7A6FEA030301EADD
:101190000303136007F11407BD4680BC704700BF0E
:1011A00080B485B000AFF8607A603B600B46FB729C
:1011B000FB6803F5A0631A467B6803F00103DBB20A
:1011C000002B07D0FB6803F5A0631968FB7A41EA9E
:1011D000030308E0FB6803F5A0631968FB7A6FEA74
:1011E000030301EA03031360FB6803F5A06303F143
:1011F00004031A467B6803F00203002B09D0FB6846
:1012000003F5A06303F104031968FB7A41EA0303C1
:101210000AE0FB6803F5A06303F104031968FB7A95
:101220006FEA030301EA03031360FB6803F5A1639C
:101230001A467B6803F00403002B07D0FB6803F514
:10124000A1631968FB7A41EA030308E0FB6803F530
:10125000A1631968FB7A6FEA030301EA03031360D1
:10126000FB6803F5A3631A467B6803F00803002BB1
:1012700007D0FB6803F5A3631968FB7A41EA03030F
:1012800008E0FB6803F5A3631968FB7A6FEA0303C0
:1012900001EA03031360FB6803F5A06303F10C0389
:1012A0001A463B6803F00103DBB2002B09D0FB6850
:1012B00003F5A06303F10C031968FB7A41EA030309
:1012C0000AE0FB6803F5A06303F10C031968FB7ADD
:1012D0006FEA030301EA03031360FB6803F5A263EB
:1012E0001A463B6803F00203002B07D0FB6803F5A6
:1012F000A2631968FB7A41EA030308E0FB6803F57F
:10130000A2631968FB7A6FEA030301EA030313601F
:10131000FB6803F5A26303F104031A463B6803F07C
:101320000403002B09D0FB6803F5A26303F1040357
:101330001968FB7A41EA03030AE0FB6803F5A2633C
:1013400003F104031968FB7A6FEA030301EA03035C
:101350001360FB6803F5A26303F10C031A463B68B4
:1013600003F00803002B09D0FB6803F5A26303F127
:101370000C031968FB7A41EA03030AE0FB6803F5F2
:10138000A26303F10C031968FB7A6FEA030301EA15
:1013900003031360FB6803F5A5631A463B68002B43
:1013A00007D1FB6803F5A5631968FB7A41EA0303DB
:1013B00008E0FB6803F5A5631968FB7A6FEA03038D
:1013C00001EA0303136007F11407BD4680BC7047B0
:1013D00080B483B000AF786013460A46FA70BB70E1
:1013E000FB784FEA83031A467B68D318BA781A60F1
:1013F00007F10C07BD4680BC704700BF80B582B0C6
:1014000000AF78600B46FB70FB78786819464FF0A8
:101410000202FFF781FEFB78786819464FF004025C
:101420004FF00803FFF7BCFE07F10807BD4680BD7B
:1014300080B582B000AF78600B46FB70FB787868AF
:1014400019464FF00002FFF767FEFB7878681946EF
:101450004FF001024FF00803FFF7A2FE07F1080763
:10146000BD4680BD80B582B000AF78600B46FB7092
:10147000FB78786819464FF00102FFF74DFEFB78C4
:10148000786819464FF001024FF00803FFF788FE15
:1014900007F10807BD4680BD80B582B000AF786017
:1014A0000B46FB70FB78786819464FF00202FFF795
:1014B00033FEFB78786819464FF001024FF00803BD
:1014C000FFF76EFE07F10807BD4680BD80B485B00A
:1014D00000AF78607B684FEA134303F0FF03FB60C3
:1014E0004EF26C03C4F20F031A68FB684FF001015F
:1014F00001FA03F302EA0303002B0CD0FB684FEA66
:10150000430303F1010242F23C73C0F2000353F8BB
:101510002230FB6009E0FB684FEA430242F23C7371
:10152000C0F2000353F82230FB607B684FEA1323BC
:1015300003F0FF03BB60FB6803F5A46303F10C0336
:101540001A46FB6803F5A46303F10C031968BB6832
:101550004FF00F0000FA03F36FEA030319407B68B2
:1015600003F00F00BB6800FA03F341EA03031360C2
:1015700007F11407BD4680BC704700BF80B500AFBF
:1015800000F04CFF0346DBB2184680BD80B483B048
:1015900000AF78607B68042B0CD14EF62453CEF25A
:1015A00000034EF62452CEF20002126842F480325A
:1015B0001A6051E07B68052B0CD14EF62453CEF215
:1015C00000034EF62452CEF20002126842F40032BA
:1015D0001A6041E07B68062B0CD14EF62453CEF204
:1015E00000034EF62452CEF20002126842F480222A
:1015F0001A6031E07B680F2B0CD14EF21003CEF253
:1016000000034EF21002CEF20002126842F0020213
:101610001A6021E07B680F2B0FD97B682F2B0CD829
:101620004FF46143CEF200037A68A2F110024FF04A
:10163000010101FA02F21A600EE07B682F2B0BD930
:101640004EF20413CEF200037A68A2F130024FF09A
:10165000010101FA02F21A6007F10C07BD4680BCD5
:10166000704700BF80B483B000AF78607B68042B04
:101670000CD14EF62453CEF200034EF62452CEF295
:101680000002126822F480321A6051E07B68052B58
:101690000CD14EF62453CEF200034EF62452CEF275
:1016A0000002126822F400321A6041E07B68062BC7
:1016B0000CD14EF62453CEF200034EF62452CEF255
:1016C0000002126822F480221A6031E07B680F2B3E
:1016D0000CD14EF21003CEF200034EF21002CEF205
:1016E0000002126822F002021A6021E07B680F2BD0
:1016F0000FD97B682F2B0CD84EF28013CEF200034B
:101700007A68A2F110024FF0010101FA02F21A60A8
:101710000EE07B682F2B0BD94EF28413CEF2000320
:101720007A68A2F130024FF0010101FA02F21A6068
:1017300007F10C07BD4680BC704700BF80B582B082
:1017400000AF7860396040F21003C2F2000303F08A
:10175000704240F21003C2F2000323F07F4323F4EF
:1017600070034FEA431342EA030343F000731B681C
:10177000002B5BD040F21003C2F2000303F0704272
:1017800040F21003C2F2000323F07F4323F47003FE
:101790004FEA431342EA030343F0007343F00403A8
:1017A0001B68002B3ED000BF4FF40040C4F2000085
:1017B00000F012FC0346002BF6D14FF48040C4F237
:1017C00000004FF040014FF00002FFF701FE40F231
:1017D0001003C2F2000303F0704240F21003C2F2A1
:1017E000000323F07F4323F470034FEA431342EADC
:1017F000030343F0007343F004034FF000021A6048
:1018000010E07B681B787A6802F101027A604FF47D
:101810000040C4F20000194600F0C6FB3B6803F12B
:10182000FF333B603B68002BEBD100E000BF07F1CA
:101830000807BD4680BD00BF80B582B000AF7860AC
:10184000396040F21003C2F2000303F0704240F22C
:101850001003C2F2000323F07F4323F470034FEA26
:10186000431342EA030343F000731B68002B5BD071
:1018700040F21003C2F2000303F0704240F2100382
:10188000C2F2000323F07F4323F470034FEA4313B3
:1018900042EA030343F0007343F004031B68002B88
:1018A0003ED100BF4FF40040C4F2000000F094FBB2
:1018B0000346002BF6D14FF48040C4F200004FF0F5
:1018C00040014FF04002FFF783FD40F21003C2F2E7
:1018D000000303F0704240F21003C2F2000323F051
:1018E0007F4323F470034FEA431342EA030343F0B8
:1018F000007343F004034FF001021A6010E07B68AC
:101900001B787A6802F101027A604FF40040C4F259
:101910000000194600F048FB3B6803F1FF333B60D1
:101920003B68002BEBD100E000BF07F10807BD4684
:1019300080BD00BF80B582B000AF40F21403C2F298
:1019400000034FF000021A6040F21403C2F20003D9
:1019500003F104034FF000021A6042F6C010C0F217
:1019600000004FF00301FFF7E9FE42F6C410C0F299
:1019700000004FF00301FFF7E1FE42F28870C0F271
:1019800000004FF00201FFF7D9FE4FF000037B602B
:1019900016E04FF000033B600BE040F21400C2F28F
:1019A00000004FF00801FFF747FF3B6803F1100309
:1019B0003B603B687F2BF0D97B6803F101037B60C0
:1019C0007B685F2BE5D907F10807BD4680BD00BFE6
:1019D00080B588B000AFF860B9607A60FB7040F203
:1019E0001403C2F200034FF015021A70BB684FEAED
:1019F0005303DAB240F21403C2F200035A7040F209
:101A00001403C2F200034FF03F029A7040F2140038
:101A1000C2F200004FF00301FFF790FE40F2140302
:101A2000C2F200034FF075021A707B68DAB240F21E
:101A30001403C2F200035A707B68DBB203F10703A0
:101A4000DAB240F21403C2F200039A7040F21400BA
:101A5000C2F200004FF00301FFF770FE42F2847003
:101A6000C0F200004FF00201FFF768FE94E0FB684F
:101A70001B7803F07F03FB75FB6803F10103FB6038
:101A8000FB7D1F2B03D84FF00003FB7503E0FB7DAC
:101A9000A3F12003FB754FF00003FB6179E04FF0E9
:101AA0000003BB615FE040F21403C2F20003BA69B5
:101AB0009B184FF000021A70F97D42F28C72C0F24E
:101AC00000020B464FEA83035B18F9695B18D318D1
:101AD0001B781A46BB6942FA03F303F00103DBB239
:101AE000002B0AD0FB784FEA0313DAB240F214035A
:101AF000C2F20003B9695B181A70FB69032B2ED878
:101B0000F97DFB6903F1010042F28C72C0F2000220
:101B10000B464FEA83035B181B18D3181B781A4631
:101B2000BB6942FA03F303F00103DBB2002B16D0CA
:101B300040F21403C2F20003BA699B181B78DAB2B0
:101B4000FB7803F00F03DBB242EA0303DBB2DAB245
:101B500040F21403C2F20003B9695B181A70BB6942
:101B600003F10103BB61BB69072B9CD940F2140050
:101B7000C2F200004FF00801FFF75EFEBB6803F100
:101B80000203BB60BB68802B0CD0FB6903F102032E
:101B9000FB61FB69052B82D9FB681B78002B7FF466
:101BA00066AF00E000BF07F12007BD4680BD00BF63
:101BB00080B584B002AF78604FF40040C4F20000FA
:101BC00000F0DEF9FEF7DEFD03467A6800924FF082
:101BD000080201924FF40040C4F2000019464FF091
:101BE00003024FF0000300F05DF94FF48040C4F2AF
:101BF00000004FF00801FFF74FFC4FF48040C4F2A3
:101C000000004FF008014FF004024FF00A03FFF705
:101C1000C7FA4FF40040C4F2000000F09DF940F212
:101C20001003C2F2000303F0704240F21003C2F24C
:101C3000000323F07F4323F470034FEA431342EA87
:101C4000030343F000734FF001021A6007F1080725
:101C5000BD4680BD80B584B000AF78604FF0100005
:101C6000C1F20000FEF716FC4FF00100C2F20000C6
:101C7000FEF710FC4FF00100C2F20000FEF70AFC74
:101C80004FF48040C4F200004FF02C01FFF704FC39
:101C90004FF48040C4F200004FF02C014FF00402DA
:101CA0004FF00A03FFF77CFA4FF48040C4F20000C3
:101CB0004FF0C001FFF7D6FB4FF48040C4F20000A4
:101CC0004FF0C0014FF004024FF00803FFF768FA2D
:101CD0004FF48040C4F200004FF0C0014FF0C0024A
:101CE000FFF776FB40F21003C2F2000303F07042EC
:101CF00040F21003C2F2000323F07F4323F4700389
:101D00004FEA431342EA030343F0007343F0040332
:101D10004FF001021A607868FFF74AFFFFF70AFEEA
:101D20004FF00003FB6021E0FB6803F1010242F683
:101D30006C13C0F20003D21842F66C13C0F2000319
:101D4000F9685B181B7803F1FF3310461946FFF75B
:101D5000F5FC42F66C13C0F20003FA689B181B787E
:101D60001A46FB68D31803F10103FB60FB684E2B96
:101D7000DAD907F11007BD4680BD00BF80B500AFBE
:101D80004FF01000C2F20000FEF784FB4FF48040D9
:101D9000C4F202004FF00101FFF74AFB4FF480400C
:101DA000C4F202004FF001014FF001024FF00A03AC
:101DB000FFF7F6F94FF48040C4F202004FF0020141
:101DC000FFF736FB4FF48040C4F202004FF00201EF
:101DD0004FF001024FF00A03FFF7E2F94FF48040A1
:101DE000C4F202004FF00401FFF722FB4FF48040E1
:101DF000C4F202004FF004014FF001024FF00A0359
:101E0000FFF7CEF94FF48040C4F202004FF0080112
:101E1000FFF70EFB4FF48040C4F202004FF00801C0
:101E20004FF001024FF00A03FFF7BAF980BD00BF7F
:101E300080B582B000AF42F6F413C0F200037B60BD
:101E400040F20003C2F200033B600BE07B681A68BB
:101E50003B681A603B6803F104033B607B6803F155
:101E600004037B603A6840F21003C2F200039A4216
:101E7000ECD3084808494FF000028842B8BF40F848
:101E8000042BFADBFEF73CF900F05CFA07F10807D7
:101E9000BD4680BD10000020CC03002080B400AF00
:101EA000FEE700BF80B48BB000AFF860B9607A6025
:101EB0003B603B68022B02D14FF0080301E04FF07A
:101EC00000033B623B68002B02D14FF0000301E0AE
:101ED0004FF004033A6A42EA03033B62FB6803F1F2
:101EE00004033A6A1A60BA683B6BB2FBF3F3FB6116
:101EF0004FF000037B627B6A03F102037B62FA69A5
:101F00007B6AB2FBF3F303F1FF33BB61BB69FF2BC9
:101F1000F1D8FB6803F110037A6A1A607B684FEA14
:101F200083137B617B6803F030037B60BB694FEAFE
:101F300003227B691A437B681A437B6B03F1FF33EF
:101F400042EA03033B62FB683A6A1A6007F12C0716
:101F5000BD4680BC704700BF80B483B000AF7860DE
:101F60007B6803F104037A6802F10402126842F00C
:101F700002021A6007F10C07BD4680BC704700BF23
:101F800080B483B000AF78607B6803F104037A68A3
:101F900002F10402126822F002021A6007F10C0733
:101FA000BD4680BC704700BF80B483B000AF78608E
:101FB000396000BF7B6803F10C031B6803F0020368
:101FC000002BF7D07B6803F108033A681A6007F129
:101FD0000C07BD4680BC704780B483B000AF78600A
:101FE0007B6803F10C031B6803F01003002B0CBF8C
:101FF00000230123DBB2184607F10C07BD4680BC65
:10200000704700BF80B582B000AF78607A6840F258
:10201000C803C2F200031A604FF00800C2F20000C9
:10202000FEF738FA4FF00200C0F20300FFF74EFA55
:1020300040F20240C0F20300FFF748FA4FF4E040DC
:10204000C4F200004FF00301FFF7D8F94FF480709D
:10205000C0F21000FEF71EFAFEF794FB03464FF0A5
:102060000000C4F2040019464AF22012C0F207022E
:10207000FEF758FE4FF00000C4F20400FEF740FEE9
:1020800000F008F84FF00103184607F10807BD46B5
:1020900080BD00BF80B582B000AF4FF000037B6011
:1020A00082E042F6C813C0F200037A6853F8222097
:1020B00040F24803C2F2000379684FEA41115B180D
:1020C00003F108031A6042F6D413C0F200037A68E1
:1020D00053F8222040F24803C2F2000379684FEA25
:1020E00041115B1803F114031A6040F24803C2F275
:1020F00000037A684FEA42129B1803F10C0340F682
:10210000FF721A6040F24803C2F200037A684FEA95
:1021100042129B1803F110034FF000021A607B6813
:1021200003F101031A4640F24803C2F20003796842
:102130004FEA41115B1803F11C031A607B684FEAF8
:10214000431240F24803C2F20003D21840F248039F
:10215000C2F2000379684FEA41115B1803F11803DA
:102160001A6040F24803C2F200037A684FEA421252
:102170009B1803F11C031A687B684FEA431303F1B1
:10218000080140F24803C2F20003CB184FF00000F0
:10219000C4F2040011461A464FF00203FEF742FE55
:1021A0007B6803F101037B607B68022B7FF779AFCB
:1021B0004FF000037B6049E042F6E013C0F20003F9
:1021C0007A6853F8222040F2A803C2F2000379682B
:1021D0004FEA41115B1803F108031A6042F6E41359
:1021E000C0F200037A6853F8222040F2A803C2F23A
:1021F000000379684FEA41115B1803F114031A6078
:102200007B6803F104031A4640F2A803C2F20003FC
:1022100079684FEA41115B1803F11C031A607B686F
:102220004FEA431240F2A803C2F20003D21840F270
:10223000A803C2F2000379684FEA41115B1803F169
:1022400018031A607B6803F101037B607B68002B35
:10225000B2DD4FF00103184607F10807BD4680BD07
:1022600080B487B000AFF860B9607A60FB68002B7B
:102270000DD140F2A803C2F20003FA684FEA4212FD
:102280009B1803F114031A687B689A4202D04FF03E
:1022900001031CE04FF000037B6112E07B69BA6828
:1022A000D3181A7840F2A803C2F20003F9684FEA83
:1022B0004110796941185B181A707B6903F10103B9
:1022C0007B617A697B689A42E8D34FF00003184635
:1022D00007F11C07BD4680BC704700BF80B582B0C7
:1022E00000AF4FF000037B6025E040F2C803C2F26C
:1022F00000031B68194640F2A803C2F200037A6883
:102300004FEA42129B1803F11C031A687B684FEADC
:10231000431303F1080040F2A803C2F20003C318FC
:10232000084611461A464FF00003FEF77BFD7B6816
:1023300003F101037B607B68002BD6DD07F1080702
:10234000BD4680BD80B588B000AF00F015F84FF0F5
:1023500000004FF0010142F6E812C0F2000200F066
:1023600063F800F08BF844F64F00C4F243504FF08E
:10237000080100F039F8F6E780B500AF4FF46E5071
:10238000C0F28070FEF7B6F800F09EF8FEF7FAF99A
:102390000346184600F0FAF84FF00000C4F20400BB
:1023A000FFF730FEFEF7B0FBFFF7E8FC00F0DCF8CB
:1023B00000F0C8F8FFF7E2F880BD00BF684620F0E3
:1023C00007018D4681B400AF40F22C03C2F2000336
:1023D0001B6803F1010240F22C03C2F200031A60F1
:1023E000BD4681BC8546704780B582B000AF78603D
:1023F000396042F6E013C0F200037A681A603B4687
:102400004FF0000019464FF00402FFF729FFFFF7D5
:1024100065FF07F10807BD4680BD00BFEFF31084DC
:1024200062B670472346184680B586B000AFF860A4
:10243000B9607A60786800F0BBF803467B61FB689E
:10244000C3F11F027B699A4203DAFB68C3F11F03E1
:102450007B6140F2CC03C2F20003BA684FEA42113A
:10246000FA688A189A187B69104679681A4600F04B
:10247000CFF807F11807BD4680BD00BF80B582B018
:1024800000AF4FF000037B6016E040F2CC03C2F2D5
:1024900000037A684FEA42129A187B684FEAC30336
:1024A00010464FF000011A464FF00F03FFF790FA65
:1024B0007B6803F101037B607B68172BE5DD07F187
:1024C0000807BD4680BD00BF80B582B000AF44F2B2
:1024D0004020C0F20F00FFF7BDFB4FF000037B6010
:1024E00028E04FF000033B6010E040F2CC03C2F262
:1024F00000037A684FEA42113A688A189B184FF035
:1025000020021A703B6803F101033B603B681E2BFD
:10251000EBDD40F2CC03C2F200037A684FEA4212CC
:102520009B1803F11F034FF000021A707B6803F140
:1025300001037B607B68172BD3DD07F10807BD46DD
:1025400080BD00BF80B400AF4EF21003CEF2000396
:102550004EF21002CEF20002126842F005021A603A
:10256000BD4680BC704700BF80B400AF4EF2100380
:10257000CEF200034EF21002CEF20002126842F0D8
:1025800002021A60BD4680BC704700BF80B483B0B1
:1025900000AF78604EF21403CEF200037A6802F1C5
:1025A000FF321A6007F10C07BD4680BC704700BFC0
:1025B00020F0030110F00300C0F1000051F8043BCB
:1025C00000F1040C4FEACC0C6FF000021CBF22FAA1
:1025D0000CF213434FF0010C4CEA0C2C4CEA0C4C5F
:1025E000A3EB0C0222EA030212EACC1204BF51F858
:1025F000043B0430F4D013F0FF0F1FBF013013F47D
:102600007F4F013013F47F0F18BF0130704700BFB8
:1026100041EA000313F0030F034670B414BF002512
:102620000125032A94BF002505F001050C46064646
:10263000CDB9B2B10D783446531E04F8015B55B1E3
:10264000B21C73B111F8015F1446013B02F8015C42
:102650000132002DF5D123B10022013B04F8012BFA
:10266000FBD170BC7047214654F8045BA5F10136DC
:1026700026EA050616F0803F05D1043A43F8045BCC
:10268000032A2146EFD81E46D3E700BF10E00F40D3
:1026900014E00F401CE00F4010E00F4040E00F40FE
:1026A00044E00F4048E00F4000E10F4004E10F40DC
:1026B00008E10F4010E10F4014E10F4018E10F4016
:1026C00020E10F4024E10F4028E10F4040420F007D
:1026D00000201C0080841E0000802500999E36008A
:1026E0000040380000093D0000803E0000004B0023
:1026F000404B4C0000204E00808D5B0000C05D0010
:102700000080700000127A0000007D008096980022
:10271000001BB7000080BB00C0E8CE00647ADA007E
:102720000024F4000000FA000011001240224023AF
:1027300040334034403540364037000000400040D0
:1027400000800540005000400090054000600040BF
:1027500000A005400070004000B00540004002406D
:1027600000C005400050024000D00540006002401B
:1027700000E005400070024000F0054000D003403A
:1027800000000640A0560000A0520000000000001B
:102790000000004F00000007000700147F147F14A2
:1027A000242A7F2A122313086462364955225000D6
:1027B00005030000001C2241000041221C001408F7
:1027C0003E081408083E08080050300000080808B9
:1027D0000808006060000020100804023E514945CE
:1027E0003E00427F400042615149462141454B3104
:1027F0001814127F1027454545393C4A4949300194
:10280000710905033649494936064949291E0036EA
:10281000360000005636000008142241001414143B
:102820001414004122140802015109063249794169
:102830003E7E1111117E7F494949363E4141412278
:102840007F4141221C7F494949417F090909013ED5
:102850004149497A7F0808087F00417F41002040B4
:10286000413F017F081422417F404040407F020CDD
:10287000027F7F0408107F3E4141413E7F090909E4
:10288000063E4151215E7F09192946464949493191
:1028900001017F01013F4040403F1F2040201F3F7A
:1028A0004038403F631408146307087008076151FB
:1028B000494543007F414100020408102000414186
:1028C0007F00040201020440404040400001020435
:1028D0000020545454787F484444383844444420B9
:1028E000384444487F3854545418087E0901020C77
:1028F0005252523E7F0804047800447D400020403C
:10290000443D007F1028440000417F40007C0418B3
:1029100004787C0804047838444444387C14141443
:1029200008081414187C7C080404084854545420E3
:10293000043F4440203C4040207C1C2040201C3C64
:102940004030403C44281028440C5050503C4464D3
:10295000544C44000836410000007F00000041361E
:1029600008000201020402000000000003FD12E35F
:1029700002AEE3039400E303A85FE30381B7E3033C
:10298000823FE303A052E303A100E303A200E302BA
:10299000A4E303B111E303B223E303B3E2E311B809
:1029A000010203040506080A0C0E1013161A1EE392
:1029B00003BB01E303BC3FE302AFE300AEE300006F
:1029C00015003F0075007F000201000001020000B9
:1029D00001030000040000000400000004000000E7
:1029E000010100000400000056454C4F434944419A
:0429F000440000009F
:1029F400001BB700001BB70000127A0000093D005D
:00000001FF
