:10000000FC03002079070000E1070000E107000081
:10001000E1070000E1070000E10700000000000028
:10002000000000000000000000000000E1070000E8
:10003000E107000000000000E1070000E107000008
:10004000E1070000E1070000E1070000E107000010
:10005000E1070000E1070000E1070000E107000000
:10006000E1070000E1070000E1070000E1070000F0
:10007000E1070000E1070000E1070000E1070000E0
:10008000E1070000E1070000E1070000E1070000D0
:10009000E1070000E1070000E1070000E1070000C0
:1000A000E1070000E1070000E1070000E1070000B0
:1000B000E1070000E1070000E1070000E1070000A0
:1000C000E1070000E1070000E1070000E107000090
:1000D000E1070000E1070000E1070000E107000080
:1000E000E1070000E1070000E1070000E107000070
:1000F000E1070000E1070000E1070000E107000060
:1001000080B500AF4FF4A860C0F2402000F060F866
:1001100000F06AFB4FF00C0000F030FC40F6D030ED
:10012000C0F200004FF000014FF0000200F006FDA9
:1001300040F6E030C0F200004FF001014FF0000245
:1001400000F0FCFC40F6EC30C0F200004FF0020181
:100150004FF0000200F0F2FC40F6FC30C0F200006C
:100160004FF003014FF0000200F0E8FCFEE700BF93
:1001700080B483B000AF78607B684FEA137240F6BA
:100180002C43C0F2000353F822301A467B684FEA32
:10019000137140F62C43C0F2000353F82130196864
:1001A0007B684FEA03434FEA1343786800F4F81082
:1001B0004FEA104003FA00F341EA0303136007F12A
:1001C0000C07BD4680BC70470138FDD1704700BFA9
:1001D00080B586B000AF78604FF46043C4F20F037F
:1001E0001B6803F0E043002B0DD04FF46043C4F2D2
:1001F0000F031A684FF00003C7F2FF0302EA03037C
:10020000B3F1805F03D17B68002BC0F223814EF2F3
:100210006003C4F20F031B683B614EF27003C4F22B
:100220000F031B68FB603B6943F400633B613B6960
:1002300023F480033B61FB6843F40063FB604EF2F0
:100240006003C4F20F033A691A604EF27003C4F2FD
:100250000F03FA681A603B6903F00203002B04D015
:100260007B6803F00203002B0AD03B6903F0010313
:10027000DBB2002B2FD07B6803F00103002B2AD1C7
:100280007B6863F003033A6902EA03033B614EF2C1
:100290006003C4F20F033A691A60FB68002B09DAA5
:1002A000FB6803F07003302B0CD0FB6803F0700385
:1002B000702B07D0FB68002B09DB3B6903F0300390
:1002C000302B04D14FF48050FFF77EFF03E04FF452
:1002D0000020FFF779FF3B6923F45E5323F070039E
:1002E0003B617A6843F2F07302EA03033A6942EA37
:1002F00003033B61FA684DF68F73C7F6FF7302EA9A
:100300000303FB607A6842F23003C8F2000302EA9A
:100310000303FA6842EA0303FB607B6803F0080307
:100320004FEAC303FA6842EA0303FB604EF2580344
:10033000C4F20F034FF040021A60FB68002B0CDA86
:100340004EF27003C4F20F03FA681A604EF26003B3
:10035000C4F20F033A691A600BE04EF26003C4F274
:100360000F033A691A604EF27003C4F20F03FA6881
:100370001A604FF01000FFF727FF3B6923F0F86386
:1003800023F003033B617A684FF00303C0F2C073AC
:1003900002EA03033A6942EA03033B61FB6823F084
:1003A000FC53FB607B6803F0FC53FA6842EA0303EA
:1003B000FB607B6803F08043002B13D03B6943F460
:1003C00080033B61FB6823F48003FB607A684FF095
:1003D0000003C4F2400302EA0303FA6842EA03039B
:1003E000FB6003E0FB6823F08043FB607B6803F461
:1003F0000063002B1DD14FF400437B610CE04EF2F3
:100400005003C4F20F031B6803F04003002B07D115
:100410007B6903F1FF337B617B69002BEFD100E047
:1004200000BF3B6923F400633B61FB6823F4006376
:10043000FB604EF26003C4F20F033A691A604EF299
:100440007003C4F20F03FA681A604FF01000FFF750
:10045000BBFE00E000BF07F11807BD4680BD00BF2E
:1004600080B485B000AFF8600B467A60FB72FB6821
:1004700003F580631A467B6803F00103DBB2002BAF
:1004800007D0FB6803F580631968FB7A41EA030330
:1004900008E0FB6803F580631968FB7A6FEA0303E1
:1004A00001EA03031360FB6803F584631A467B6863
:1004B00003F00203002B07D0FB6803F5846319687F
:1004C000FB7A41EA030308E0FB6803F584631968DB
:1004D000FB7A6FEA030301EA0303136007F11407D1
:1004E000BD4680BC704700BF80B485B000AFF860E7
:1004F0007A603B600B46FB72FB6803F5A0631A460B
:100500007B6803F00103DBB2002B07D0FB6803F527
:10051000A0631968FB7A41EA030308E0FB6803F56E
:10052000A0631968FB7A6FEA030301EA030313600F
:10053000FB6803F5A06303F104031A467B6803F02C
:100540000203002B09D0FB6803F5A06303F1040349
:100550001968FB7A41EA03030AE0FB6803F5A0632C
:1005600003F104031968FB7A6FEA030301EA03034A
:100570001360FB6803F5A1631A467B6803F004036C
:10058000002B07D0FB6803F5A1631968FB7A41EAE9
:10059000030308E0FB6803F5A1631968FB7A6FEABF
:1005A000030301EA03031360FB6803F5A3631A4620
:1005B0007B6803F00803002B07D0FB6803F5A363F7
:1005C0001968FB7A41EA030308E0FB6803F5A363BB
:1005D0001968FB7A6FEA030301EA03031360FB68FF
:1005E00003F5A06303F10C031A463B6803F0010313
:1005F000DBB2002B09D0FB6803F5A06303F10C0309
:100600001968FB7A41EA03030AE0FB6803F5A0637B
:1006100003F10C031968FB7A6FEA030301EA030391
:100620001360FB6803F5A2631A463B6803F00203FC
:10063000002B07D0FB6803F5A2631968FB7A41EA37
:10064000030308E0FB6803F5A2631968FB7A6FEA0D
:10065000030301EA03031360FB6803F5A26303F1DC
:1006600004031A463B6803F00403002B09D0FB681F
:1006700003F5A26303F104031968FB7A41EA03035B
:100680000AE0FB6803F5A26303F104031968FB7A2F
:100690006FEA030301EA03031360FB6803F5A26337
:1006A00003F10C031A463B6803F00803002B09D042
:1006B000FB6803F5A26303F10C031968FB7A41EAB6
:1006C00003030AE0FB6803F5A26303F10C03196856
:1006D000FB7A6FEA030301EA03031360FB6803F587
:1006E000A5631A463B68002B07D1FB6803F5A56399
:1006F0001968FB7A41EA030308E0FB6803F5A56388
:100700001968FB7A6FEA030301EA0303136007F138
:100710001407BD4680BC704780B483B000AF7860DA
:1007200013460A46FA70BB70FB784FEA83031A46F9
:100730007B68D318BA781A6007F10C07BD4680BCF5
:10074000704700BF80B582B000AF78600B46FB7089
:10075000FB78786819464FF00102FFF781FEFB78BD
:10076000786819464FF001024FF00803FFF7BCFE0E
:1007700007F10807BD4680BD80B582B000AF40F6E6
:10078000AC43C0F200037B6040F20003C2F20003FE
:100790003B600BE07B681A683B681A603B6803F1BA
:1007A00004033B607B6803F104037B603A6840F21A
:1007B0000003C2F200039A42ECD3074807494FF006
:1007C00000028842B8BF40F8042BFADBFFF798FC20
:1007D00007F10807BD4680BD000000200000002092
:1007E00080B400AFFEE700BF80B500AF4FF002005D
:1007F000C2F20000FFF7BCFC4FF4A040C4F20000BE
:100800004FF0FF01FFF79EFF45F65500C0F21400C0
:10081000FFF7DAFC4FF4A040C4F200004FF00101F2
:100820004FF00002FFF778FF4FF4A040C4F2000041
:100830004FF0F0014FF03002FFF76EFF4FF4A04091
:10084000C4F200004FF002014FF00202FFF764FF14
:100850004FF03500FFF7B8FC4FF4A040C4F20000A1
:100860004FF002014FF00002FFF756FF40F6D500AF
:10087000C0F20200FFF7A8FC4FF4A040C4F2000051
:100880004FF0F0014FF03002FFF746FF4FF4A04069
:10089000C4F200004FF002014FF00202FFF73CFFEC
:1008A0004FF03500FFF790FC4FF4A040C4F2000079
:1008B0004FF002014FF00002FFF72EFF40F6D50087
:1008C000C0F20200FFF780FC4FF4A040C4F2000029
:1008D0004FF0F0014FF03002FFF71EFF4FF4A04041
:1008E000C4F200004FF002014FF00202FFF714FFC4
:1008F0004FF03500FFF768FC4FF4A040C4F2000051
:100900004FF002014FF00002FFF706FF46F62A0003
:10091000FFF75AFC4FF4A040C4F200004FF0F00182
:100920004FF02002FFF7F8FE4FF4A040C4F20000A1
:100930004FF002014FF00202FFF7EEFE4FF03500DC
:10094000FFF742FC4FF4A040C4F200004FF0020158
:100950004FF00002FFF7E0FE46F62A00FFF734FCF6
:100960004FF0010000F00AF84FF0060000F006F822
:100970004FF00F0000F002F880BD00BF80B582B0DC
:1009800000AF0346FB71FB7923F00F03DBB24FF49A
:10099000A040C4F200004FF0F0011A46FFF7BCFE81
:1009A0004FF4A040C4F200004FF001014FF00002EC
:1009B000FFF7B2FE4FF4A040C4F200004FF0020176
:1009C0004FF00202FFF7A8FE4FF03500FFF7FCFBE7
:1009D0004FF4A040C4F200004FF002014FF00002BB
:1009E000FFF79AFE4FF48570FFF7EEFBFB794FEAB5
:1009F0000313DBB24FF4A040C4F200004FF0F0014B
:100A00001A46FFF789FE4FF4A040C4F200004FF0F1
:100A100001014FF00002FFF77FFE4FF4A040C4F247
:100A200000004FF002014FF00202FFF775FE4FF099
:100A30003500FFF7C9FB4FF4A040C4F200004FF0AF
:100A400002014FF00002FFF767FE43F21540FFF787
:100A5000BBFB07F10807BD4680BD00BF80B582B073
:100A600000AF0346FB71FB7923F00F03DBB24FF4B9
:100A7000A040C4F200004FF0F0011A46FFF74CFE10
:100A80004FF4A040C4F200004FF001014FF001020A
:100A9000FFF742FE4FF4A040C4F200004FF0020105
:100AA0004FF00202FFF738FE4FF03500FFF78CFBE6
:100AB0004FF4A040C4F200004FF002014FF00002DA
:100AC000FFF72AFE4FF48570FFF77EFBFB794FEAB4
:100AD0000313DBB24FF4A040C4F200004FF0F0016A
:100AE0001A46FFF719FE4FF4A040C4F200004FF081
:100AF00001014FF00102FFF70FFE4FF4A040C4F2D6
:100B000000004FF002014FF00202FFF705FE4FF028
:100B10003500FFF759FB4FF4A040C4F200004FF03E
:100B200002014FF00002FFF7F7FD43F21540FFF717
:100B30004BFB07F10807BD4680BD00BF80B584B000
:100B400000AF786013460A46FA70BB704FF000039E
:100B5000FB73FB78032B1FD801A252F823F000BFD0
:100B6000710B00007B0B0000850B00008F0B000059
:100B7000BB78A3F18003FB7313E0BB78A3F14003C0
:100B8000FB730EE0BB78A3F16C03FB7309E0BB7849
:100B9000A3F12C03FB7304E0BB78A3F18003FB7388
:100BA00000BFFB7B1846FFF7E9FE08E07B681B7877
:100BB0007A6802F101027A601846FFF74FFF7B68FE
:100BC0001B78002BF2D107F11007BD4680BD00BF96
:100BD00048656C6C6F20576F726C642100000000D8
:100BE000332E2E322E2E312E2E0000004C61756ECB
:100BF0006368205374617274656421005374656C7A
:100C00006C6172205175616C69747921000000007B
:100C100010E00F4014E00F401CE00F4010E00F40C8
:100C200040E00F4044E00F4048E00F4000E10F403B
:100C300004E10F4008E10F4010E10F4014E10F40C4
:100C400018E10F4020E10F4024E10F4028E10F4060
:100C500040420F0000201C0080841E000080250000
:100C6000999E36000040380000093D0000803E009B
:100C700000004B00404B4C0000204E00808D5B007C
:100C800000C05D000080700000127A0000007D004E
:100C900080969800001BB7000080BB00C0E8CE0023
:0C0CA000647ADA000024F4000000FA007E
:00000001FF
